{
  "contractName": "PatriciaTree",
  "abi": [
    {
      "constant": true,
      "inputs": [],
      "name": "owner",
      "outputs": [
        {
          "name": "",
          "type": "address"
        }
      ],
      "payable": false,
      "stateMutability": "view",
      "type": "function"
    },
    {
      "constant": true,
      "inputs": [],
      "name": "root",
      "outputs": [
        {
          "name": "",
          "type": "bytes32"
        }
      ],
      "payable": false,
      "stateMutability": "view",
      "type": "function"
    },
    {
      "inputs": [],
      "payable": false,
      "stateMutability": "nonpayable",
      "type": "constructor"
    },
    {
      "anonymous": false,
      "inputs": [
        {
          "indexed": false,
          "name": "key",
          "type": "bytes"
        }
      ],
      "name": "showkey",
      "type": "event"
    },
    {
      "anonymous": false,
      "inputs": [
        {
          "indexed": false,
          "name": "value",
          "type": "bytes"
        }
      ],
      "name": "showvalue",
      "type": "event"
    },
    {
      "anonymous": false,
      "inputs": [
        {
          "indexed": false,
          "name": "root",
          "type": "bytes32"
        }
      ],
      "name": "showroot",
      "type": "event"
    },
    {
      "constant": true,
      "inputs": [
        {
          "name": "hash",
          "type": "bytes32"
        }
      ],
      "name": "getNode",
      "outputs": [
        {
          "name": "",
          "type": "uint256"
        },
        {
          "name": "",
          "type": "bytes32"
        },
        {
          "name": "",
          "type": "bytes32"
        },
        {
          "name": "",
          "type": "uint256"
        },
        {
          "name": "",
          "type": "bytes32"
        },
        {
          "name": "",
          "type": "bytes32"
        }
      ],
      "payable": false,
      "stateMutability": "view",
      "type": "function"
    },
    {
      "constant": true,
      "inputs": [],
      "name": "getRootEdge",
      "outputs": [
        {
          "name": "",
          "type": "uint256"
        },
        {
          "name": "",
          "type": "bytes32"
        },
        {
          "name": "",
          "type": "bytes32"
        }
      ],
      "payable": false,
      "stateMutability": "view",
      "type": "function"
    },
    {
      "constant": true,
      "inputs": [
        {
          "name": "key",
          "type": "bytes"
        }
      ],
      "name": "getProof",
      "outputs": [
        {
          "name": "branchMask",
          "type": "uint256"
        },
        {
          "name": "_siblings",
          "type": "bytes32[]"
        }
      ],
      "payable": false,
      "stateMutability": "view",
      "type": "function"
    },
    {
      "constant": true,
      "inputs": [
        {
          "name": "rootHash",
          "type": "bytes32"
        },
        {
          "name": "key",
          "type": "bytes"
        },
        {
          "name": "value",
          "type": "bytes"
        },
        {
          "name": "branchMask",
          "type": "uint256"
        },
        {
          "name": "siblings",
          "type": "bytes32[]"
        }
      ],
      "name": "verifyProof",
      "outputs": [],
      "payable": false,
      "stateMutability": "view",
      "type": "function"
    },
    {
      "constant": false,
      "inputs": [
        {
          "name": "key",
          "type": "bytes"
        },
        {
          "name": "value",
          "type": "bytes"
        }
      ],
      "name": "insert",
      "outputs": [],
      "payable": false,
      "stateMutability": "nonpayable",
      "type": "function"
    }
  ],
  "bytecode": "0x608060405234801561001057600080fd5b5060038054600160a060020a0319163317905561130a806100326000396000f3006080604052600436106100825763ffffffff7c010000000000000000000000000000000000000000000000000000000060003504166320ba5b60811461008757806350c946fe14610120578063693ac4fb1461016b5780638da5cb5b1461021f578063a43914da1461025d578063ebf0c71714610290578063f7e498f6146102b7575b600080fd5b34801561009357600080fd5b506040805160206004803580820135601f810184900484028501840190955284845261011e94369492936024939284019190819084018382808284375050604080516020601f89358b018035918201839004830284018301909452808352979a9998810197919650918201945092508291508401838280828437509497506103939650505050505050565b005b34801561012c57600080fd5b50610138600435610685565b604080519687526020870195909552858501939093526060850191909152608084015260a0830152519081900360c00190f35b34801561017757600080fd5b506040805160206004803580820135601f81018490048402850184019095528484526101c49436949293602493928401919081908401838280828437509497506106be9650505050505050565b6040518083815260200180602001828103825283818151815260200191508051906020019060200280838360005b8381101561020a5781810151838201526020016101f2565b50505050905001935050505060405180910390f35b34801561022b57600080fd5b50610234610963565b6040805173ffffffffffffffffffffffffffffffffffffffff9092168252519081900360200190f35b34801561026957600080fd5b5061027261097f565b60408051938452602084019290925282820152519081900360600190f35b34801561029c57600080fd5b506102a561098d565b60408051918252519081900360200190f35b3480156102c357600080fd5b5060408051602060046024803582810135601f810185900485028601850190965285855261011e95833595369560449491939091019190819084018382808284375050604080516020601f89358b018035918201839004830284018301909452808352979a99988101979196509182019450925082915084018382808284375050604080516020808901358a01803580830284810184018652818552999c8b359c909b909a9501985092965081019450909250829190850190849080828437509497506109939650505050505050565b61039b611164565b60006103a561117b565b7f42998f30e80c5fe9e5480e1bc82dae646bcb9d0f7a86299e9c2d922a8063a348856040518080602001828103825283818151815260200191508051906020019080838360005b838110156104045781810151838201526020016103ec565b50505050905090810190601f1680156104315780820380516001836020036101000a031916815260200191505b509250505060405180910390a17f0c52d145f3ae8a0b94eadb9a271bf4c4082885d738b29610d7d63e82225305bc846040518080602001828103825283818151815260200191508051906020019080838360005b8381101561049d578181015183820152602001610485565b50505050905090810190601f1680156104ca5780820380516001836020036101000a031916815260200191505b509250505060405180910390a16040805190810160405280866040518082805190602001908083835b602083106105125780518252601f1990920191602091820191016104f3565b6001836020036101000a03801982511681845116808217855250505050505090500191505060405180910390206000191681526020016101008152509250836040518082805190602001908083835b602083106105805780518252601f199092019160209182019101610561565b51815160209384036101000a6000190180199092169116179052604080519290940182900390912060008181528083529390932089519397506105ca95509350880191905061119b565b506004541580156105db5750600654155b156105ef576020810183905281815261062a565b604080518082018252600454815281518083019092526005548252600654602083810191909152810191909152610627908484610b91565b90505b61063381610ccd565b600281905560408051918252517f94c8a3242529df22dae52947f155d3242a5af905df4fe0b0f2f53083a4a3da9c9181900360200190a180516004556020908101518051600555015160065550505050565b60009081526001602081905260409091206002810154918101548154600583015460048401546003909401549495929491939092909190565b600060606106ca611164565b6106d261117b565b6106da611219565b6000806106e5611164565b6106ed611164565b60006106f7611164565b600060408051908101604052808e6040518082805190602001908083835b602083106107345780518252601f199092019160209182019101610715565b518151602093840361010090810a600019018019909316929091169190911790915260408051939095018390039092208752958601525080518082018252600454815281518083019092526005548252600654828601529384015250919b509950505b6107a58a8a60200151610cfc565b9450945088602001516020015185602001511415156107c357600080fd5b602084015115156107d3576108df565b60208501519690960160ff81900360020a9b909b179a600101956107f684610d2a565b8a51600090815260016020819052604090912092955090935061085f91908590036002811061082157fe5b604080518082018252600392909202929092018054825282518084019093526001810154835260020154602083810191909152810191909152610ccd565b60018701968990610100811061087157fe5b6020908102919091019190915289516000908152600190915260409020836002811061089957fe5b6040805180820182526003929092029290920180548252825180840190935260018101548352600201546020838101919091528101919091529199509097508890610797565b60008611156109545785604051908082528060200260200182016040528015610912578160200160208202803883390190505b509a50600090505b85811015610954578781610100811061092f57fe5b60200201518b8281518110151561094257fe5b6020908102909101015260010161091a565b50505050505050505050915091565b60035473ffffffffffffffffffffffffffffffffffffffff1681565b600654600554600454909192565b60025481565b61099b611164565b6109a361117b565b60008060006109b061123a565b60408051908101604052808b6040518082805190602001908083835b602083106109eb5780518252601f1990920191602091820191016109cc565b6001836020036101000a03801982511681845116808217855250505050505090500191505060405180910390206000191681526020016101008152509550886040518082805190602001908083835b60208310610a595780518252601f199092019160209182019101610a3a565b5181516020939093036101000a600019018019909116921691909117905260405192018290039091208852506000955050505b8715610b6957610a9b88610d91565b92508260019060020a021988169750610ab7868460ff03610e6f565b60208701819052909650610aca90610d2a565b60208701529150610ada85610ccd565b818360028110610ae657fe5b60200201528651879085810360001901908110610aff57fe5b906020019060200201518183600103600281101515610b1a57fe5b60200201526040805182918190839080838360005b83811015610b47578181015183820152602001610b2f565b5050604051949092018490039093208a52505060019096019550610a8c915050565b60208501869052610b7985610ccd565b8b14610b8457600080fd5b5050505050505050505050565b610b9961117b565b610ba1611164565b610ba9611164565b600080610bb4611164565b610bbc611255565b6020808b0151810151908a01511015610bd457600080fd5b610be2898b60200151610cfc565b95509550846020015160001415610bfb57879350610cac565b6020808b01518101519087015110610c21578951610c1a90868a610ee8565b9350610cac565b610c2a85610d2a565b604080518082019091528a8152602081018290528351929550909350908460028110610c5257fe5b602002018190525060408051908101604052808b60000151600019168152602001610c888c602001518960200151600101610fe2565b90528151600185900360028110610c9b57fe5b6020020152610ca981611016565b93505b50506040805180820190915291825250602081019290925250949350505050565b805160208083015180820151905160408051948552928401919091528282015251908190036060019020919050565b610d04611164565b610d0c611164565b610d1f84610d1a8587611079565b610e6f565b915091509250929050565b6000610d34611164565b6020830151600010610d4557600080fd5b50508051604080518082019091528251600202815260209283015160001901928101929092527f8000000000000000000000000000000000000000000000000000000000000000900491565b600080808080851515610da357600080fd5b859350600092505b6020831015610e0c5783601f84900360208110610dc457fe5b1a60f860020a027effffffffffffffffffffffffffffffffffffffffffffffffffffffffffffff1916600060f860020a02141515610e0157610e0c565b600190920191610dab565b83601f84900360208110610e1c57fe5b1a60f860020a0260f860020a900460ff16915060019050600094505b610100851015610e645781811615610e57578483600802019450610e66565b6001909401938001610e38565bfe5b50505050919050565b610e77611164565b610e7f611164565b83602001518311158015610e9557506101008311155b1515610ea057600080fd5b60208201839052821515610eb75760008252610ecb565b835160001961010085900360020a01191682525b60208085015184900390820152925160029290920a909102825291565b6000610ef2611255565b6000610efc611164565b6020860151600110610f0d57600080fd5b6000878152600160209081526040808320815160608101909252909290918391908201908390600290835b82821015610f86576040805180820182526003840286018054825282518084019093526001808201548452600290910154602084810191909152808301939093529083529092019101610f38565b50505050815250509250610f9986610d2a565b84519193509150610fbb908360028110610faf57fe5b60200201518287610b91565b83518360028110610fc857fe5b6020020152610fd787846110f9565b979650505050505050565b610fea611164565b6020830151821115610ffb57600080fd5b60208084015183900390820152915160029190910a02815290565b60008061102283611124565b83515160008281526001602081815260409092208351815592820151805191840191909155810151600283015594518501518051600383015585015180516004830155909401516005909401939093555090919050565b600080600080846020015186602001511061109857846020015161109e565b85602001515b855187519194501891507f800000000000000000000000000000000000000000000000000000000000000090505b828410156110f057808216156110e1576110f0565b600190930192908001906110cc565b50505092915050565b6000828152600160205260408120816111128282611269565b505061111d82611016565b9392505050565b805160009061113990825b6020020151610ccd565b825161114690600161112f565b60408051928352602083019190915280519182900301902092915050565b604080518082019091526000808252602082015290565b60408051606081019091526000815260208101611196611164565b905290565b828054600181600116156101000203166002900490600052602060002090601f016020900481019282601f106111dc57805160ff1916838001178555611209565b82800160010185558215611209579182015b828111156112095782518255916020019190600101906111ee565b50611215929150611293565b5090565b61200060405190810160405280610100906020820280388339509192915050565b60408051808201825290600290829080388339509192915050565b60c0604051908101604052806111966112b0565b50600080825560018201819055600282018190556003820181905560048201819055600590910155565b6112ad91905b808211156112155760008155600101611299565b90565b60c0604051908101604052806002905b6112c861117b565b8152602001906001900390816112c057905050905600a165627a7a723058206d0e8d2b478e62c361ac777f362c2c1f8a9e2136515c15b2e6836efe46a85f810029",
  "source": "pragma solidity ^0.4.23;\n\nimport {D} from \"./Data.sol\";\nimport {Utils} from \"./Utils.sol\";\n\ncontract PatriciaTree {\n    // Mapping of hash of key to value\n    mapping (bytes32 => bytes) values;\n\n    // Particia tree nodes (hash to decoded contents)\n    mapping (bytes32 => D.Node) nodes;\n    // The current root hash, keccak256(node(path_M('')), path_M(''))\n    bytes32 public root;\n    address public owner;\n    D.Edge rootEdge;\n\n    event showkey(bytes key);\n    event showvalue(bytes value);\n    event showroot(bytes32 root);\n\n    function PatriciaTree() {\n        owner = msg.sender;\n    }\n\n    function getNode(bytes32 hash) constant returns (uint, bytes32, bytes32, uint, bytes32, bytes32) {\n        var n = nodes[hash];\n        return (\n            n.children[0].label.length, n.children[0].label.data, n.children[0].node,\n            n.children[1].label.length, n.children[1].label.data, n.children[1].node\n        );\n    }\n\n    function getRootEdge() constant returns (uint, bytes32, bytes32) {\n        return (rootEdge.label.length, rootEdge.label.data, rootEdge.node);\n    }\n    \n    function edgeHash(D.Edge e) internal returns (bytes32) {\n        return keccak256(e.node, e.label.length, e.label.data);\n    }\n    \n    // Returns the hash of the encoding of a node.\n    function hash(D.Node memory n) internal returns (bytes32) {\n        return keccak256(edgeHash(n.children[0]), edgeHash(n.children[1]));\n    }\n    \n    // Returns the Merkle-proof for the given key\n    // Proof format should be:\n    //  - uint branchMask - bitmask with high bits at the positions in the key\n    //                    where we have branch nodes (bit in key denotes direction)\n    //  - bytes32[] hashes - hashes of sibling edges\n    function getProof(bytes key) constant returns (uint branchMask, bytes32[] _siblings) {\n        D.Label memory k = D.Label(keccak256(key), 256);\n        D.Edge memory e = rootEdge;\n        bytes32[256] memory siblings;\n        uint length;\n        uint numSiblings;\n        while (true) {\n            var (prefix, suffix) = Utils.splitCommonPrefix(k, e.label);\n            require(prefix.length == e.label.length);\n            if (suffix.length == 0) {\n                // Found it\n                break;\n            }\n            length += prefix.length;\n            branchMask |= uint(1) << (255 - length);\n            length += 1;\n            var (head, tail) = Utils.chopFirstBit(suffix);\n            siblings[numSiblings++] = edgeHash(nodes[e.node].children[1 - head]);\n            e = nodes[e.node].children[head];\n            k = tail;\n        }\n        if (numSiblings > 0)\n        {\n            _siblings = new bytes32[](numSiblings);\n            for (uint i = 0; i < numSiblings; i++)\n                _siblings[i] = siblings[i];\n        }\n    }\n\n    function verifyProof(bytes32 rootHash, bytes key, bytes value, uint branchMask, bytes32[] siblings) constant {\n        D.Label memory k = D.Label(keccak256(key), 256);\n        D.Edge memory e;\n        e.node = keccak256(value);\n        for (uint i = 0; branchMask != 0; i++) {\n            uint bitSet = Utils.lowestBitSet(branchMask);\n            branchMask &= ~(uint(1) << bitSet);\n            (k, e.label) = Utils.splitAt(k, 255 - bitSet);\n            uint bit;\n            (bit, e.label) = Utils.chopFirstBit(e.label);\n            bytes32[2] memory edgeHashes;\n            edgeHashes[bit] = edgeHash(e);\n            edgeHashes[1 - bit] = siblings[siblings.length - i - 1];\n            e.node = keccak256(edgeHashes);\n        }\n        e.label = k;\n        require(rootHash == edgeHash(e));\n    }\n    \n    // TODO also return the proof\n    function insert(bytes key, bytes value) {\n        emit showkey(key);\n        emit showvalue(value);\n        D.Label memory k = D.Label(keccak256(key), 256);\n        bytes32 valueHash = keccak256(value);\n        values[valueHash] = value;\n        // keys.push(key);\n        D.Edge memory e;\n        if (rootEdge.node == 0 && rootEdge.label.length == 0)\n        {\n            // Empty Trie\n            e.label = k;\n            e.node = valueHash;\n        }\n        else\n        {\n            e = insertAtEdge(rootEdge, k, valueHash);\n        }\n        root = edgeHash(e);\n        emit showroot(root);\n        rootEdge = e;\n    }\n    \n    function insertAtNode(bytes32 nodeHash, D.Label key, bytes32 value) internal returns (bytes32) {\n        require(key.length > 1);\n        D.Node memory n = nodes[nodeHash];\n        var (head, tail) = Utils.chopFirstBit(key);\n        n.children[head] = insertAtEdge(n.children[head], tail, value);\n        return replaceNode(nodeHash, n);\n    }\n    \n    function insertAtEdge(D.Edge e, D.Label key, bytes32 value) internal returns (D.Edge) {\n        require(key.length >= e.label.length);\n        var (prefix, suffix) = Utils.splitCommonPrefix(key, e.label);\n        bytes32 newNodeHash;\n        if (suffix.length == 0) {\n            // Full match with the key, update operation\n            newNodeHash = value;\n        } else if (prefix.length >= e.label.length) {\n            // Partial match, just follow the path\n            newNodeHash = insertAtNode(e.node, suffix, value);\n        } else {\n            // Mismatch, so let us create a new branch node.\n            var (head, tail) = Utils.chopFirstBit(suffix);\n            D.Node memory branchNode;\n            branchNode.children[head] = D.Edge(value, tail);\n            branchNode.children[1 - head] = D.Edge(e.node, Utils.removePrefix(e.label, prefix.length + 1));\n            newNodeHash = insertNode(branchNode);\n        }\n        return D.Edge(newNodeHash, prefix);\n    }\n    function insertNode(D.Node memory n) internal returns (bytes32 newHash) {\n        bytes32 h = hash(n);\n        nodes[h].children[0] = n.children[0];\n        nodes[h].children[1] = n.children[1];\n        return h;\n    }\n    function replaceNode(bytes32 oldHash, D.Node memory n) internal returns (bytes32 newHash) {\n        delete nodes[oldHash];\n        return insertNode(n);\n    }\n}\n\n// contract TestPatriciaTree is PatriciaTree {\n//     function test() {\n//         //testInsert();\n//         testProofs();\n//     }\n//     function testInsert() internal {\n//         insert(\"one\", \"ONE\");\n//         insert(\"two\", \"ONE\");\n//         insert(\"three\", \"ONE\");\n//         insert(\"four\", \"ONE\");\n//         insert(\"five\", \"ONE\");\n//         insert(\"six\", \"ONE\");\n//         insert(\"seven\", \"ONE\");\n//         // update\n//         insert(\"one\", \"TWO\");\n//     }\n//     function testProofs() internal {\n//         insert(\"one\", \"ONE\");\n//         var (branchMask, siblings) = getProof(\"one\");\n//         verifyProof(root, \"one\", \"ONE\", branchMask, siblings);\n//         insert(\"two\", \"TWO\");\n//         (branchMask, siblings) = getProof(\"one\");\n//         verifyProof(root, \"one\", \"ONE\", branchMask, siblings);\n//         (branchMask, siblings) = getProof(\"two\");\n//         verifyProof(root, \"two\", \"TWO\", branchMask, siblings);\n//     }\n// }\n",
  "sourcePath": "/home/user97/repos/solidity/patricia-trie/contracts/PatriciaTree.sol",
  "compiler": {
    "name": "solc",
    "version": "0.4.24+commit.e67f0147.Emscripten.clang"
  },
  "schemaVersion": "2.0.1",
  "updatedAt": "2018-07-09T09:55:59.371Z"
}