{
  "contractName": "UtilsTest",
  "abi": [
    {
      "constant": false,
      "inputs": [],
      "name": "test",
      "outputs": [],
      "payable": false,
      "stateMutability": "nonpayable",
      "type": "function"
    }
  ],
  "bytecode": "0x608060405234801561001057600080fd5b506108e5806100206000396000f3006080604052600436106100405763ffffffff7c0100000000000000000000000000000000000000000000000000000000600035041663f8a8fd6d8114610045575b600080fd5b34801561005157600080fd5b5061005a61005c565b005b61006461008e565b61006c6100ed565b610074610212565b61007c6102ec565b6100846103dd565b61008c610532565b565b61009961012361063a565b156100a357600080fd5b6100ae61012461063a565b6002146100ba57600080fd5b6100c864044000000061063a565b601e146100d457600080fd5b6100e160ff60020a61063a565b60ff1461008c57600080fd5b6100f56108a2565b7fef12300000000000000000000000000000000000000000000000000000000000815260146020820152600080808061012d85610718565b9550935061013a85610718565b9550925061014785610718565b9550915061015485610718565b955090506001841461016557600080fd5b6001831461017257600080fd5b6001821461017f57600080fd5b801561018a57600080fd5b602085015160101461019b57600080fd5b84517ff123000000000000000000000000000000000000000000000000000000000000146101c857600080fd5b60ff60020a8552600160208601526101df85610718565b95509350600184146101f057600080fd5b6020850151156101ff57600080fd5b84511561020b57600080fd5b5050505050565b61021a6108a2565b7fef1230000000000000000000000000000000000000000000000000000000000081526014602082015261024f816004610763565b602081015190915060101461026357600080fd5b80517ff1230000000000000000000000000000000000000000000000000000000000001461029057600080fd5b61029b81600f610763565b60208101519091506001146102af57600080fd5b805160ff60020a146102c057600080fd5b6102cb816001610763565b6020810151909150156102dd57600080fd5b8051156102e957600080fd5b50565b6102f46108a2565b6102fc6108a2565b7fabcd0000000000000000000000000000000000000000000000000000000000008252601060208084018290527fa00000000000000000000000000000000000000000000000000000000000000083528201526103598282610797565b60041461036557600080fd5b600060208201526103768282610797565b1561038057600080fd5b7fbbcd0000000000000000000000000000000000000000000000000000000000008152601060208201526103b48282610797565b6003146103c057600080fd5b80602001516103cf8283610797565b146103d957600080fd5b5050565b6103e56108a2565b6103ed6108a2565b6103f56108a2565b7fabcd00000000000000000000000000000000000000000000000000000000000083526010602084015261042a8360006107fb565b602082015191935091501561043e57600080fd5b602080840151908201511461045257600080fd5b825181511461046057600080fd5b61046b8360046107fb565b6020820151919350915060041461048157600080fd5b81517fa000000000000000000000000000000000000000000000000000000000000000146104ae57600080fd5b6020810151600c146104bf57600080fd5b80517fbcd0000000000000000000000000000000000000000000000000000000000000146104ec57600080fd5b6104f78360106107fb565b602081015191935091501561050b57600080fd5b602080840151908301511461051f57600080fd5b825182511461052d57600080fd5b505050565b61053a6108a2565b6105426108a2565b61054a6108a2565b6105526108a2565b7fabcd000000000000000000000000000000000000000000000000000000000000845260106020808601919091527fa0f570000000000000000000000000000000000000000000000000000000000084526014908401526105b38385610874565b602082015191935091506004146105c957600080fd5b81517fa000000000000000000000000000000000000000000000000000000000000000146105f657600080fd5b602081015160101461060757600080fd5b80517f0f570000000000000000000000000000000000000000000000000000000000001461063457600080fd5b50505050565b60008080808085151561064c57600080fd5b859350600092505b60208310156106b55783601f8490036020811061066d57fe5b1a60f860020a027effffffffffffffffffffffffffffffffffffffffffffffffffffffffffffff1916600060f860020a021415156106aa576106b5565b600190920191610654565b83601f849003602081106106c557fe5b1a60f860020a0260f860020a900460ff16915060019050600094505b61010085101561070d578181161561070057848360080201945061070f565b60019094019380016106e1565bfe5b50505050919050565b60006107226108a2565b602083015160001061073357600080fd5b505080516040805180820190915282516002028152602092830151600019019281019290925260ff60020a900491565b61076b6108a2565b602083015182111561077c57600080fd5b60208084015183900390820152915160029190910a02815290565b60008060008084602001518660200151106107b65784602001516107bc565b85602001515b8551875191945018915060ff60020a90505b828410156107f257808216156107e3576107f2565b600190930192908001906107ce565b50505092915050565b6108036108a2565b61080b6108a2565b8360200151831115801561082157506101008311155b151561082c57600080fd5b602082018390528215156108435760008252610857565b835160001961010085900360020a01191682525b60208085015184900390820152925160029290920a909102825291565b61087c6108a2565b6108846108a2565b610897846108928587610797565b6107fb565b915091509250929050565b6040805180820190915260008082526020820152905600a165627a7a723058202601ab5f63213cc0e37a5f4c56951bcdd3ec283e82185ccaa664afa7252774740029",
  "source": "pragma solidity ^0.4.23;\n\nimport {D} from \"./Data.sol\";\n\nlibrary Utils {\n    /// Returns a label containing the longest common prefix of `check` and `label`\n    /// and a label consisting of the remaining part of `label`.\n    function splitCommonPrefix(D.Label label, D.Label check) internal returns (D.Label prefix, D.Label labelSuffix) {\n        return splitAt(label, commonPrefix(check, label));\n    }\n    /// Splits the label at the given position and returns prefix and suffix,\n    /// i.e. prefix.length == pos and prefix.data . suffix.data == l.data.\n    function splitAt(D.Label l, uint pos) internal returns (D.Label prefix, D.Label suffix) {\n        require(pos <= l.length && pos <= 256);\n        prefix.length = pos;\n        if (pos == 0) {\n            prefix.data = bytes32(0);\n        } else {\n            prefix.data = l.data & ~bytes32((uint(1) << (256 - pos)) - 1);\n        }\n        suffix.length = l.length - pos;\n        suffix.data = l.data << pos;\n    }\n    /// Returns the length of the longest common prefix of the two labels.\n    function commonPrefix(D.Label a, D.Label b) internal returns (uint prefix) {\n        uint length = a.length < b.length ? a.length : b.length;\n        // TODO: This could actually use a \"highestBitSet\" helper\n        uint diff = uint(a.data ^ b.data);\n        uint mask = 1 << 255;\n        for (; prefix < length; prefix++)\n        {\n            if ((mask & diff) != 0)\n                break;\n            diff += diff;\n        }\n    }\n    /// Returns the result of removing a prefix of length `prefix` bits from the\n    /// given label (i.e. shifting its data to the left).\n    function removePrefix(D.Label l, uint prefix) internal returns (D.Label r) {\n        require(prefix <= l.length);\n        r.length = l.length - prefix;\n        r.data = l.data << prefix;\n    }\n    /// Removes the first bit from a label and returns the bit and a\n    /// label containing the rest of the label (i.e. shifted to the left).\n    function chopFirstBit(D.Label l) internal returns (uint firstBit, D.Label tail) {\n        require(l.length > 0);\n        return (uint(l.data >> 255), D.Label(l.data << 1, l.length - 1));\n    }\n    /// Returns the first bit set in the bitfield, where the 0th bit\n    /// is the least significant.\n    /// Throws if bitfield is zero.\n    /// More efficient the smaller the result is.\n    function lowestBitSet(uint bitfield) internal returns (uint bit) {\n        require(bitfield != 0);\n        bytes32 bitfieldBytes = bytes32(bitfield);\n        // First, find the lowest byte set\n        for (uint byteSet = 0; byteSet < 32; byteSet++) {\n            if (bitfieldBytes[31 - byteSet] != 0)\n                break;\n        }\n        uint singleByte = uint(uint8(bitfieldBytes[31 - byteSet]));\n        uint mask = 1;\n        for (bit = 0; bit < 256; bit ++) {\n            if ((singleByte & mask) != 0)\n                return 8 * byteSet + bit;\n            mask += mask;\n        }\n        assert(false);\n        return 0;\n    }\n    /// Returns the value of the `bit`th bit inside `bitfield`, where\n    /// the least significant is the 0th bit.\n    function bitSet(uint bitfield, uint bit) internal returns (uint) {\n        return (bitfield & (uint(1) << bit)) != 0 ? 1 : 0;\n    }\n}\n\n\ncontract UtilsTest {\n    function test() {\n        testLowestBitSet();\n        testChopFirstBit();\n        testRemovePrefix();\n        testCommonPrefix();\n        testSplitAt();\n        testSplitCommonPrefix();\n    }\n    function testLowestBitSet() internal {\n        require(Utils.lowestBitSet(0x123) == 0);\n        require(Utils.lowestBitSet(0x124) == 2);\n        require(Utils.lowestBitSet(0x11 << 30) == 30);\n        require(Utils.lowestBitSet(1 << 255) == 255);\n    }\n    function testChopFirstBit() internal {\n        D.Label memory l;\n        l.data = hex\"ef1230\";\n        l.length = 20;\n        uint bit1;\n        uint bit2;\n        uint bit3;\n        uint bit4;\n        (bit1, l) = Utils.chopFirstBit(l);\n        (bit2, l) = Utils.chopFirstBit(l);\n        (bit3, l) = Utils.chopFirstBit(l);\n        (bit4, l) = Utils.chopFirstBit(l);\n        require(bit1 == 1);\n        require(bit2 == 1);\n        require(bit3 == 1);\n        require(bit4 == 0);\n        require(l.length == 16);\n        require(l.data == hex\"F123\");\n\n        l.data = hex\"80\";\n        l.length = 1;\n        (bit1, l) = Utils.chopFirstBit(l);\n        require(bit1 == 1);\n        require(l.length == 0);\n        require(l.data == 0);\n    }\n    function testRemovePrefix() internal {\n        D.Label memory l;\n        l.data = hex\"ef1230\";\n        l.length = 20;\n        l = Utils.removePrefix(l, 4);\n        require(l.length == 16);\n        require(l.data == hex\"f123\");\n        l = Utils.removePrefix(l, 15);\n        require(l.length == 1);\n        require(l.data == hex\"80\");\n        l = Utils.removePrefix(l, 1);\n        require(l.length == 0);\n        require(l.data == 0);\n    }\n    function testCommonPrefix() internal {\n        D.Label memory a;\n        D.Label memory b;\n        a.data = hex\"abcd\";\n        a.length = 16;\n        b.data = hex\"a000\";\n        b.length = 16;\n        require(Utils.commonPrefix(a, b) == 4);\n\n        b.length = 0;\n        require(Utils.commonPrefix(a, b) == 0);\n\n        b.data = hex\"bbcd\";\n        b.length = 16;\n        require(Utils.commonPrefix(a, b) == 3);\n        require(Utils.commonPrefix(b, b) == b.length);\n    }\n    function testSplitAt() internal {\n        D.Label memory a;\n        a.data = hex\"abcd\";\n        a.length = 16;\n        var (x, y) = Utils.splitAt(a, 0);\n        require(x.length == 0);\n        require(y.length == a.length);\n        require(y.data == a.data);\n\n        (x, y) = Utils.splitAt(a, 4);\n        require(x.length == 4);\n        require(x.data == hex\"a0\");\n        require(y.length == 12);\n        require(y.data == hex\"bcd0\");\n\n        (x, y) = Utils.splitAt(a, 16);\n        require(y.length == 0);\n        require(x.length == a.length);\n        require(x.data == a.data);\n    }\n    function testSplitCommonPrefix() internal {\n        D.Label memory a;\n        D.Label memory b;\n        a.data = hex\"abcd\";\n        a.length = 16;\n        b.data = hex\"a0f570\";\n        b.length = 20;\n        var (prefix, suffix) = Utils.splitCommonPrefix(b, a);\n        require(prefix.length == 4);\n        require(prefix.data == hex\"a0\");\n        require(suffix.length == 16);\n        require(suffix.data == hex\"0f57\");\n    }\n}\n",
  "sourcePath": "/home/user97/repos/solidity/patricia-trie/contracts/Utils.sol",
  "compiler": {
    "name": "solc",
    "version": "0.4.24+commit.e67f0147.Emscripten.clang"
  },
  "schemaVersion": "2.0.1",
  "updatedAt": "2018-07-09T09:55:58.545Z"
}